:020000040000FA
:02000000BE2818
:1000800011261526A001200875278226ED26A00A34
:100090001F302002031D432808001126A001233031
:1000A000A1002008A627A200A10A21088400220896
:1000B0008000A00A10302002031D51281030A30038
:1000C0002330C02608001126A0012330A1002008FB
:1000D0009927A200A10A2108840022088000A00A12
:1000E00008302002031D67280830A3002330C026F3
:1000F000080011267E26B826A001200851270226D6
:10010000ED26A00A1F302002031D7D28BC26080012
:100110001126A001200800270026A00A083020028E
:10012000031D8A280800A00120081A27A100E6263E
:1001300021080D2702261130E626ED26A00A0830F8
:100140002002031D942808001126A00120083C2746
:10015000A100073C031CAF282108E626B22821088D
:10016000383EE6262108272702261130E626ED260E
:10017000A00A10302002031DA6280800F0265926E8
:100180001E2688201E2611261E2693201E26A42009
:100190001E2663201E264D201E2679201E26402066
:0801A0001E261126E226C128EB
:100C00000F39303883120313C300430E83120313CA
:100C100021268312031343088312031321264A2635
:100C2000080001303B262F260800831203134830AA
:100C3000BE001030BD00831203130800EA26EA2626
:100C400008000F394038252E0F39860010388600ED
:100C50007D26103A86007D260F308600080083121C
:100C600003132130BF00C000C00B342EBF0B332E46
:100C700083120313080083120313C300430E83126D
:100C80000313242683120313430883120313242619
:100C90004A260800831203130430C100C200C20BAD
:100CA0004F2EC10B4E2E00000000000083120313D4
:100CB0000800803083160313860583120313831202
:100CC00003132030C3002F26C30B632E831203139C
:100CD00033303B2632303B262F2628303B262F262A
:100CE00008303B262F2601303B262F2606303B2698
:100CF0002F260F303B262F260800080007303B2602
:100D00004A26080083120313BA00831203137E26B7
:100D1000831203133E0883120313E6268312031380
:100D20003A08831203130226BC26831203133D08DC
:100D300083120313E626831203133A088312031364
:100D40000226A52683120313080083120313BD0A8B
:100D5000BE0A3D08283C0319B22E3E08683C031920
:100D6000B52E08000030BD0008004030BE0008006D
:100D700088303B264A26080004303B264A260800D5
:100D800083120313BA0084000008BB00BA0A3A08B1
:100D9000083EBC003C083A06031DD42E40308312A6
:100DA0000313E626831203133A0884000008831213
:100DB0000313022683120313BA0ABB0BCA2E831233
:100DC0000313080080303B264A26080080383B2663
:100DD0004A260800ED26ED260800F026F026080039
:100DE000F326F326F326831203132A30C100FF30C3
:100DF000C200C20BF92EC10BF72E83120313080099
:100E0000A20007308A00220882070134023403342A
:100E100004340534063407340834A20007308A004D
:100E20002208820745346C3465346334723461348B
:100E300066347434A20007308A002208820707341F
:100E40000034063401340534023404340334A2007F
:100E500007308A0022088207573469346C346434BE
:100E6000653472346E3465347334733420345234E0
:100E70006134643469346F34A20007308A00220878
:100E800082070F3400340E3401340D3402340C3434
:100E900003340B3404340A3405340934063408347A
:100EA0000734A20007308A00220882074F346134D9
:100EB0006B342034483469346C346C3473342034EB
:100EC0005234653473346534613472346334683455
:100ED00020342E342E342E34203420342034203448
:100EE00020342034203420342034A20007308A00FB
:100EF0002208820753346D3461346C346C342034EE
:100F000057346F346E3464346534723420344C3466
:100F100061346234733420342E342E342E34203431
:100F20002034203420342034203420342034203421
:100F30002034A20007308A0022088207513452343C
:100F4000503420344C34613462347334A20007309E
:100F50008A00220882072A344D346F347234733485
:100F600065342034453478347034723465347334E5
:060F700073342A34203422
:02400E00213F50
:00000001FF
