:020000040000FA
:040000008A11AE2A89
:10008000A20000308A0022088207013402340334BF
:1000900004340534063407340834A20000308A00E2
:1000A0002208820745346C34653463347234613419
:1000B00066347434A20000308A00220882070734B4
:1000C0000034063401340534023404340334A2000D
:1000D00000308A0022088207573469346C34643453
:1000E000653472346E34653473347334203452346E
:1000F0006134643469346F34A20000308A0022080D
:1001000082070F3400340E3401340D3402340C34C1
:1001100003340B3404340A34053409340634083407
:100120000734A20000308A00220882074F3461346D
:100130006B342034483469346C346C347334203478
:1001400052346534733465346134723463346834E2
:1001500020342E342E342E342034203420342034D5
:1001600020342034203420342034A20000308A008F
:100170002208820753346D3461346C346C3420347B
:1001800057346F346E3464346534723420344C34F4
:1001900061346234733420342E342E342E342034BF
:1001A00020342034203420342034203420342034AF
:1001B0002034A20000308A002208820751345234D1
:1001C000503420344C34613462347334A200003033
:1001D0008A00220882072A344D346F347234733413
:1001E0006534203445347834703472346534733473
:0601F00073342A342034B0
:100400008A1111238A111523A00120088A11B52011
:100410008A1182238A11ED238A11A00A1F3020023B
:10042000031D052A08008A1111238A11A001233017
:10043000A10020088A11E6208A11A200A10A210841
:10044000840022088000A00A10302002031D192A0F
:100450001030A30023308A11C02308008A11112311
:100460008A11A0012330A10020088A11D9208A1105
:10047000A200A10A2108840022088000A00A0830F6
:100480002002031D342A0830A30023308A11C02320
:1004900008008A1111238A117E238A11B823A00132
:1004A00020088A1191208A1102238A11ED238A11D2
:1004B000A00A1F302002031D502A8A11BC23080005
:1004C0008A111123A00120088A1140208A110023DB
:1004D0008A11A00A08302002031D632A0800A00127
:1004E00020088A115A20A1008A11E62321088A11C6
:1004F0004D208A11022311308A11E6238A11ED233F
:100500008A11A00A08302002031D702A08008A11EF
:1005100011238A11A00120088A117C208A11A100D0
:10052000073C031C982A21088A11E6238A119D2A78
:100530002108383E8A11E6238A1121088A11672092
:100540008A11022311308A11E6238A11ED238A11C0
:10055000A00A10302002031D8B2A08008A11F02304
:100560008A1159238A111E238A1160228A111E239F
:100570008A1111238A111E238A116F228A111E23C8
:100580008A1187228A111E238A112E228A111E2384
:100590008A1113228A111E238A1149228A111E23CD
:1005A0008A1100228A111E238A1111238A11E22343
:0405B0008A11B42ACE
:100600000F39303883120313C300430E83120313D0
:1006100021238312031343088312031321234A2344
:10062000080001303B232F230800831203134830B6
:10063000BE001030BD00831203130800EA23EA2332
:1006400008000F394038252B0F39860010388600F6
:100650007D23103A86007D230F3086000800831228
:1006600003132130BF00C000C00B342BBF0B332B52
:1006700083120313080083120313C300430E831273
:100680000313242383120313430883120313242325
:100690004A230800831203130430C100C200C20BB6
:1006A0004F2BC10B4E2B00000000000083120313E0
:1006B0000800803083160313860583120313831208
:1006C00003132030C3002F23C30B632B83120313A8
:1006D00033303B2332303B232F2328303B232F233F
:1006E00008303B232F2301303B232F2306303B23AD
:1006F0002F230F303B232F230800080007303B2314
:100700004A23080083120313BA00831203137E23C3
:10071000831203133E0883120313E6238312031389
:100720003A08831203130223BC23831203133D08E8
:1007300083120313E623831203133A08831203136D
:100740000223A52383120313080083120313BD0A97
:10075000BE0A3D08283C0319B22B3E08683C031929
:10076000B52B08000030BD0008004030BE00080076
:1007700088303B234A23080004303B234A230800E7
:1007800083120313BA0084000008BB00BA0A3A08B7
:10079000083EBC003C083A06031DD42B40308312AF
:1007A0000313E623831203133A088400000883121C
:1007B0000313022383120313BA0ABB0BCA2B83123F
:1007C0000313080080303B234A23080080383B2372
:1007D0004A230800ED23ED230800F023F02308004E
:1007E000F323F323F323831203132A30C100FF30D2
:1007F000C200C20BF92BC10BF72B831203130800A5
:02400E00213F50
:00000001FF
