:020000040000FA
:040000000000002AD2
:08000800F000030EF100831269
:100010000313A20A0319A10AA80A0B11710E830087
:06002000F00E700E090055
:1000800000308A002A088207273410340334E83409
:0C0090000034643400340A3400340134BD
:100100000130D42084200800831203132130B10071
:10011000B200B20B8928B10B8828831203130800A0
:10012000803083160313860583120313831203138F
:100130002030B5008420B50B9A2883120313333086
:10014000D4203230D42084202830D4208420083099
:10015000D42084200130D42084200630D420842070
:100160000F30D420842008000F3930388312031355
:10017000B500350E83120313E320831203133508F1
:1001800083120313E320C5200800831203130430F5
:10019000B300B400B40BCA28B30BC9280000000098
:1001A000000083120313080083120313B500350EF9
:1001B00083120313E62083120313350883120313FB
:1001C000E620C52008000F394038E7280F3986009F
:1001D00010388600F120103A8600F1200F3086009A
:0C01E000080008008030D420C520080072
:100200000F21F220233084000530A0000008B62022
:10021000840AA00B062929088600A8010800A3016A
:10022000A401A501A601A701AA012108AF00220887
:10023000B000233084004020AB00AA0A4020AC006C
:10024000AA0A2F08AD003008AE002C08AE02031831
:100250002D292D0803193729AD032B08AD02031CE6
:1002600037292E08B0002D08AF00800A252930302C
:100270008004840A2A08083C03181B2908008B12F2
:1002800083160313811201128111011581140114C7
:06029000831203130800B5
:100400003F2190200C30D4208020A101A2010E3089
:10041000A9008B168B170021280803190C2A0B2A18
:040420000034003470
:02400E00213F50
:00000001FF
