:020000040000FA
:040000000000D02804
:080008008C00030E8D00831231
:100010000B1D0F28910A0319900A970A0B118316DA
:10002000081E1528081283128E0A83120D0E8300F3
:060030008C0E0C0E09000D
:1000400000308A0019088207273410340334E8345A
:0C0050000034643400340A3400340134FD
:1000600000308A000E0C0339820740284E283828B9
:1000700083120B1383128E010E3086009800080045
:100080000630860098008316881808000430831212
:100090008900831210088312880058288316881854
:1000A000080005308312890083121108831288002A
:1000B00083168B13081555308900AA3089008814DF
:1000C0000B178B1783128E0A0800742062211230DE
:1000D000840005308F0000083021840A8F0B6B28C4
:1000E0001808860097010800920193019401950178
:1000F0009601990110089E0011089F00123084009B
:1001000020209A00990A20209B00990A1E089C0032
:100110001F089D001B089D02031892281C08031944
:100120009C289C031A089C02031C9C281D089F0005
:100130001C089E00800A8A2830308004840A19082E
:10014000083C0318802808008B12831681120112C4
:100150008111011581140114831208000A308600F0
:100160009800043089008316081483120808900050
:10017000890A831608148312080891000E3098002B
:0401800086000800ED
:1001A000A4200E210C3048210021900191010E3035
:1001B00098008E018B168B1765200E1830200830A2
:1001C00005050319AE2010300505031DEC280E08A7
:1001D000031DEC2801308E0017080319DD28DC28E8
:0401E00000340034B3
:10020000013048210421080083122130A000A10000
:10021000A10B0829A00B0729831208008030831640
:100220008605831283122030A4000421A40B152913
:1002300083123330482132304821042128304821AC
:1002400004210830482104210130482104210630CE
:10025000482104210F304821042108000F3930388B
:100260008312A400240E83125321831224088312C4
:1002700053213B21080083120430A200A300A30BEA
:100280003F29A20B3E290000000000008312080055
:100290008312A400240E8312562183122408831291
:1002A00056213B2108000F39403857290F39860065
:1002B000103886006121103A860061210F308600D7
:0C02C00008000800803048213B210800A5
:02400E00F13F80
:00000001FF
