:020000040000FA
:0600000007309F00F62905
:08000800BC00030EBD008B1AC1
:100010002B280B1A1B283D0E8300BC0E3C0E09003A
:10002000810183166400883081008312851490302A
:100030008B00BB0108008B100C30B700B70B1E28DB
:1000400006180B28AD30810020308B000230BB0039
:100050000830B7000B280B113B193E28B7080319CD
:100060003728060CB80CB703AD3081000B28061CEE
:1000700058280130BB003808B9005828BB19582847
:10008000B70803195028BA0C031C4928000085142E
:100090004C28851000000000B703B53081000B2804
:1000A0000000000000008514BB15A83081000B285B
:1000B00010308B000130BB050B2885100630BB00CB
:1000C0000000B5308100A0308B000830B700080078
:1000D00080213B1C68283B1008005D208021BB1854
:1000E0006E28080082073B2A462A522A5E2A6A2A7C
:1000F000AD2ABA2AC22ACA2A533465347234443427
:10010000443453342034763431342E343034003493
:100110004634723465347134003453347434613489
:1001200072347434003445346E34643400345334DF
:1001300074346534703400345334633461346E3451
:100140000034533468346F347734003455347034A9
:10015000203428346F34723420343E34293400344F
:1001600044346F3477346E34203428346F3472342E
:1001700020343C3429340034483465346C347034D1
:100180000034BF09C009C109C209BF0A031DCF2835
:10019000C00A031DCF28C10A031DCF28C20A2308A5
:1001A0004207A300220841070318E820A200210803
:1001B00040070318E520A10020083F070318E220AC
:1001C000A0000800A10A031D0800A20A031D0800E0
:1001D000A30A08003030BE0203190800CF20BE0B6E
:1001E000EE2808004308BE00C2019830C1009630D6
:1001F000C0008030BF00EA204408BE000F30C100BC
:100200004230C0004030BF00EA204508BE00013047
:10021000C1008630C000A030BF00EA204608BE0002
:10022000C1012730C0001030BF00EA204708BE00DF
:100230000330C000E830BF00EA204808BE00C0011B
:100240006430BF00EA204908BE000A30BF00EA203F
:100250004A08BE000130BF00EA20080030308000AC
:10026000C120A31B3629800ACF203129C1200800D4
:1002700043308400C2019830C1009630C000803005
:10028000BF002E21840AC2010F30C1004230C000DD
:100290004030BF002E21840AC2010130C1008630E7
:1002A000C000A030BF002E21840AC201C101273046
:1002B000C0001030BF002E21840AC201C1010330EA
:1002C000C000E830BF002E21840AC201C101C00174
:1002D0006430BF002E21840AC201C101C0010A306E
:1002E000BF002E21840AC201C101C0010130BF003C
:1002F0002E210800A001A101A201A301F220080003
:1003000008003B1C81293B103908BA006D203908D0
:100310000800A401A501A601A701A8012030A90099
:100320002C08B0002D08B1002E08B2002F08B30031
:100330000310301CB2292008A507031CA429A60F0E
:10034000A429A70FA429A80A2108A607031CAB29E2
:10035000A70FAB29A80A2208A707031CB029A80ADF
:100360002308A807A80CA70CA60CA50CA40CB30C7A
:10037000B20CB10CB00CA90B9829A80108002430CC
:1003800084000008AB000830AA00AB0C031CCC2989
:10039000861506150611CF29861106150611AA0B1A
:1003A000C529840A29300402031CC1298617861333
:1003B0000800DE21DE21DE21DE210800E121E1212D
:1003C0000800FF30B400EF298030B400EF2940303E
:1003D000B400EF292030B400EF291030B400FF3012
:1003E000B500B50BF129B40BEF2908008B0183167A
:1003F0008113F53085000130860083122A30AF006A
:10040000F330AE001D30AD00C430AC0020302823E6
:100410008921BF21BF211020E121E722E7220930F5
:10042000EE22E722CC22E7223E30BA006D202030B7
:10043000BA006D20682039083E3C031D222A47304F
:10044000B900282A39083C3C031D282A4830B90045
:100450009F3E031C2D2A2030B90241303902031C73
:10046000392A4A3039020318392A413039027220B8
:10047000132ACA22132A1530EE22F8225C237A218D
:100480008921BF212323E722FF2208001A30EE2210
:10049000F8225C237A21203084000430BF23E72235
:1004A000FF2208002030EE22F8225C237A2120303F
:1004B00084000830BF23E722FF2208002430EE2208
:1004C000F8225C237A21203084000C30BF23E722FD
:1004D000FF2208002930EE22F822E72220302C23C8
:1004E0003F3034238921BF212323C120A31F962A13
:1004F00038230D30BA006D20E421203028233F300E
:100500003023CF203F303423C120A31F8C2A112356
:100510003B1C782A6820AA2A203034238921BF2155
:10052000232338230D30BA006D20AA2A38230D303A
:10053000BA006D20E421203028233F303023C12031
:100540003F303423C120A31B8C2A1A233B1C962A3C
:100550006820AA2AE722FF2208002E30EE22E72296
:100560003823E7224123E7224A23E7225323E722C5
:10057000FF2208003330EE22E72211233823E7223E
:10058000FF2208003D30EE22E7221A233823E7221B
:10059000FF2208004930EE224130BE001530B6007F
:1005A000E7223E08BA006D20F822DE22BE0A4A3059
:1005B0003E02031DD02AE722FF2208003608B60AB1
:1005C0007220FF3903190800BA006D20DE2A0D30B1
:1005D000BA006D200A30BA006D200800B600360857
:1005E0007220FF3903190800BA006D20B60AEF2AFD
:1005F0003A30BA006D202030BA006D2008006F300C
:10060000BA006D206B30BA006D20E7220800203060
:10061000BA006D204830BA006D207A30BA006D20E3
:100620000800203028233F303023CF208921BF21EC
:1006300023230800203028233F303023C120892184
:10064000BF2123230800203084000030BF2308008E
:1006500084000030B023080084000430B023080078
:1006600084000C30B023080084000830B023080058
:100670001530EE22F822203028233821A523072325
:1006800008001A30EE22F82220302C233821A5232E
:10069000072308002030EE22F822203034233821AE
:1006A000A523072308002430EE22F822203030232F
:1006B0003821A523072308000830B6004330840002
:1006C0008001840AB60B602B0830B60043308400EA
:1006D0006820083039020319832B0D3039020319C1
:1006E000922B30303902031C682B3A303902031840
:1006F000682BB6080319682B39088000BA006D20F2
:10070000840AB603682BB619682BB60A84038001E5
:100710003908BA006D202030BA006D203908BA00BF
:100720006D20682BB6080319080049308400073093
:10073000BE000008840A800084038403BE0B992B4A
:100740003030C300B60B952B08000830B60043309C
:1007500084000008BA006D20840AB60BA92B08009B
:1007600083169B0083120430B60083161C141A08EB
:100770009B0A8000840A8312B60BB52B08008316EF
:100780009B0083120430B6008B13831600089A0076
:100790009C011C1555309D00AA309D009C149C188E
:1007A000CF2B9C139B0A83128C13840AB60BC52B88
:0407B0008B1708009B
:02400E00093F68
:1042000028000100D600000080009F00D5000000BB
:10421000B000F600DA0000006400000000000000BA
:00000001FF
