:020000040000FA
:10000000952882070034AE34B63445344034553434
:1000100016340834B534B63454345534CE348634BA
:1000200010349534FD347D343D341D340D340534A5
:100030008534C534E534F5341834203400348D3437
:1000400000342834303442348434A43483340134CA
:100050002434C334043402347434A3344434C234F6
:100060008234E3346434D434433403348134233469
:10007000143463349434B434C4340034003400345D
:10008000003436348207003478345434E034A834F1
:100090003034683400341234A200203022023F3958
:1000A0000120A2000739A30003195F28A20D03183D
:1000B0005B2890205C288B20A30B56287F28A20C5D
:1000C000A20CA20C220803197028083A03196E2802
:1000D0000630A30022084220A200562807306928D3
:1000E0007B2072284730A0000030A100A10B7628A9
:1000F000A00B742808007220722072200800722061
:10010000722008007B207B2008000611861708005B
:1001100006158613080085207B20882072200800A1
:10012000852072208820722008000E3086008316F9
:10013000713086008312A4012408890083160814F4
:10014000831208084C20A40A30302402031D9C2886
:04015000A4019B2843
:02400E00F13F80
:1042000054004800450020005200410049004E0083
:104210002C00200049004E002000530050004100B7
:1042200049004E002C00200053005400410059006A
:10423000530020004D00410049004E004C00590041
:10424000200049004E002000540048004500200096
:1042500050004C00410049004E002E00200020007C
:00000001FF
