:020000040000FA
:040000000000D02804
:080008008C00030E8D00900A2C
:1000100003198F0A960A0B110D0E83008C0E0C0E1D
:020020000900D5
:1000400000308A0018088207273410340334E8345B
:0C0050000034643400340A3400340134FD
:100060003F2054211130840005308E000008022109
:10007000840A8E0B36281708860096010800910125
:10008000920193019401950198010F089D001008B9
:100090009E001130840020209900980A20209A00A8
:1000A000980A1D089B001E089C001A089C02031851
:1000B0005D281B08031967289B0319089B02031C72
:1000C00067281C089E001B089D00800A55283030B8
:1000D0008004840A1808083C03184B2808008B1277
:1000E00083168112011281110115811401148312EA
:0200F000080006
:1001A0006F2035210C30232109218F0190010E3061
:1001B00097008B168B17302016080319DC28DB28D4
:100200000F393038A300230E0D2123080D212A2198
:100210000800013023211B2108000F394038112923
:100220000F398600103886005321103A860053217A
:100230000F308600080021309F00A000A00B1E296F
:100240009F0B1D290800A300230E10212308102155
:100250002A2108000430A100A200A20B2D29A10B25
:100260002C2900000000000008008030831686055D
:1002700083122030A3001B21A30B3B293330232101
:10028000323023211B21283023211B210830232138
:100290001B21013023211B21063023211B210F307C
:1002A00023211B2108000800803023212A21080077
:02400E00F13F80
:00000001FF
