:020000040000fa
:080000000002040000000000f2
:020000040000fa
:100400000f9520000e7f22000e01880000000000e2
:100410000c00070040292000010020001100070007
:10042000000020000000e000020032000000020096
:1004300000000000b0030200000000000040da00ed
:100440000000fe004440a900000020000000e00081
:100450000300320000002000a00188004440a800f2
:100460000000060091018800800078000000eb0089
:1004700015003700e280400032a0b4009101ba00bc
:10048000e280400032a0b4009102ba00e280400055
:1004900032a0b4000002eb00472bde00f507b200eb
:1004a000602ce10004003a000059eb008301e900f0
:1004b000fdff3e00040037006128e100010032002a
:1004c0000082eb00040007001101ba000200e00006
:1004d000e8ff3a00000006003159ba008301e90044
:1004e0000c0032002159ba008301e90008003200f3
:1004f0000400e00003003a00e280400032a0b400b3
:10050000f5ff370011d9ba008301e900faff3a007c
:100510008100e800e180400032a0b4000000060045
:080520000040da000000fe00bb
:020000040000fa
:020000040002f8
:04aff800fdfb00005d
:020000040000fa
:020000040002f8
:04affc007f3f000093
:020000040000fa
:1000080090020000900200009002000090020000a0
:100018009002000090020000900200009002000090
:100028009002000090020000900200009002000080
:100038009002000090020000900200009002000070
:020000040000fa
:020000040000fa
:10052800000800005001000002000000ff005c000d
:1005380000ff00000200ff0000f90000ff000200b9
:1005480000f7000000000200000a00000200f500a9
:10055800000000004500490000470000be004f00b1
:1005680000b80000f200ba0000020000b500070061
:1005780000f700000a004500004d00004d00b800db
:1005880000070000bf000700005000001200100024
:1005980000aa0000af00ee0000450000fa00b70016
:1005a80000fa00000900f80000000000b8001a0076
:1005b80000190000440004000004000002001400b8
:1005c80000f20000b000eb00005a0000ef0011003c
:1005d800005d000014004d0000ab00000b00a200fd
:1005e80000b80000e60014000047000000000a0000
:1005f80000a200009a00f5000058000065001c00e9
:1006080000740000f000600000930000ca0087003a
:10061800000800002f001c000025000088000400ce
:1006280000c200008600e30000690000f3001a0021
:1006380000f7000040007200000200005a0051005c
:10064800005800002100090000230000200070006d
:100658000000000048000b00004900007300620021
:100668000033000010003b00000900007b00000080
:100678000049000048004800001000004000110038
:1006880000400000190000000009000008000900ef
:100698000010000010001000000000000900010018
:1006a80000090000100018000010000000001100f0
:1006b8000010000010000000000000000100010010
:1006c8000011000000001100000000000000000000
:1006d80000000000100000000010000000001000e2
:1006e8000000000000000000000000000000000002
:020000040000fa
:1006f8000c00fa0040079800510798006000b80005
:1007080020079800310798000a00370010002000e1
:10071800010020001e0f40005e9748002e00900048
:10072800be00900061004000e0804800200798006b
:10073800310798002e019000be0190004e009000f5
:10074800de009000800f5100818f5900efff3500c7
:100758000080fa00000006000200fa0000f02f00f6
:1007680000168800f00f2000201688000000eb001b
:10077800000f78000a0037001e0078008000400053
:1007880000802000008040001000780020168800bb
:1007980000d4200031002000d5ff07001e0fe8001c
:1007a800700a20009e0f1000f3ff340000a82100fb
:0c07b80061002000ceff0700ecff3700be
:00000001FF
