:020000040000FA
:100000001D2805080339A200230603190800220849
:10001000A300A00D0630A0052208A0060E30A10006
:10002000A01C132816280C30A10008000630A100DF
:1000300008000800210886000800A001A101013085
:10004000A400C830A500831203138B128316031378
:100050008112811101118110011083160313861181
:10006000061186108312031307309F000B1D3628DC
:100070000B11A40B3E280130A4000120A50B43283E
:08008000C830A5001A20362843
:02400E00213F50
:00000001FF
