:020000040000FA
:10000000322805080339A2002208230603190B2809
:100010002208A30008002208A300A00DA00D0C30A8
:10002000A0052208A004200882072E2825282828B9
:100030002B2828282E282B28252825282B282E2831
:1000400028282B28282825282E280C30A100080035
:100050000630A10008000A30A100080008002108AD
:1000600086000800A001A1010130A400C830A5004D
:10007000831203138B128316031381128111011152
:100080008110011083160313861106118610831246
:10009000031307309F000B1D4B280B11A40B532893
:1000A0000130A4000120A50B5828C830A5002F203E
:0200B0004B28DB
:02400E00213F50
:00000001FF
