:020000040000FA
:020000000728CF
:04000A00003400348A
:02000E002720A9
:100010003F205720532049205720532008280F39CC
:1000200013280F394038860006160000061200001B
:100030000800A700270E11202708112066200800BD
:10004000A700270E0F2027080F205A200800803015
:10005000831603138605831203132030A4005A204D
:10006000A40B2F28333020203230202028302020AD
:1000700001302020063020200F3020200800A5016C
:10008000250800231920A50A08302502031D402851
:100090000800A50125080D231920A50A083025020E
:0600A000031D4A280800C0
:0A00A600013020205A2008007520C8
:1000B00075200800831203132130A000A100A10BBA
:1000C0005F28A00B5E28831203130800831203131A
:1000D0000430A200A300A30B6B28A20B6A28000027
:1000E0000000000083120313080078207820080025
:1000F0007B207B2008007E207E207E20831203133D
:100100002A30A200FF30A300A30B8428A20B822870
:0601100083120313080036
:10060000A60003308A0026088207203441346D3466
:1006100051345234503420342034A60003308A0040
:1006200026088207203444344C342D34513452345B
:0406300050342034EE
:02400E00213F50
:00000001FF
