:020000040000FA
:1000000000008A1145280034F200030E8301F1003C
:100010000A088A01F000040883120313B90083124E
:1000200003130B1D39280B11F1300605831203133E
:10003000A0001F30831203132B0583120313A100AA
:10004000A2012108523EA10000300318220F013EF8
:10005000A2002108FE002208FF0080308A111E2124
:100060008A11831203132004831203138600803045
:100070008100831203133908840070088A00830109
:10008000710E8300F20E720E09007230FE00013014
:10009000FF0080308A11000031218A110000831294
:1000A0000313AE007F08AD007430AF000130B00024
:1000B000831203132D08B1002E08B200FF30AD07E4
:1000C000031CAE03310832040319D52804302F076E
:1000D000B100B201B20D3008B2073108FE0032089B
:1000E000FF0080308A11000031218A110000831244
:1000F0000313B4007F08B3002F08FE003008FF0090
:1001000080308A11000031218A110000831203130C
:10011000B600B2007F08B500B10002302F07B10071
:10012000B201B20D3008B2073108FE003208FF00FC
:1001300080308A11000031218A11000083120313DC
:10014000B200B8007F08B100B70083120313330870
:10015000B7003408B800FF30B307031CB4033708F6
:1001600038040319CE283508FE003608FF00803019
:100170008A1100001E218A11000083120313B700A8
:100180003108840083133218831737088000B50ABA
:100190000319B60AB10A0319B20AA5280630831258
:1001A0000313AF070318B00A58288A110000D92892
:1001B00008000E2183120313AB01AC018312031359
:1001C0008B168B1783120313A301A401A501A601AB
:1001D000A701A801263083120313A3070318A40A5A
:1001E0005330A5070318A60A8630A7070318A80AE4
:1001F00025082307A9002408AA0026080318260FAB
:10020000AA072708A90728080318280FAA072908FA
:1002100083120313AB00AC01EA2808000E308316EA
:1002200003138F00831203138B01C1308316031352
:10023000810086018312031386010800003A031926
:100240002529803A03192C2900347E088400831361
:100250007F188317000808007F088A007E08820044
:100260000800003A03193929803A03194329FF018C
:1002700000347E08840083137F1883170008FF0072
:10028000840A000808008A1100002C21FD00FE0FDE
:10029000FF03FF0A8A1100002C21FC007D08FF00EB
:1002A0007C08080006340834003408340A34023468
:1002B000023404340A3406340234083406340C346C
:1002C0000034023404340434083404340234063470
:1002D000043400340234003406340834003400346A
:1002E0000634003401340034033400343A3400342A
:0402F00001340034A1
:02400E00393F38
:02401000FF3F70
:00000001FF
