:020000040000FA
:02000000C7280F
:040060000034003434
:0C00640030227522A00120087523A02284
:100070001322A00A1F302002031D3528AE280800D5
:100080003022A0012330A1002008A623A200A10A4B
:100090002108840022088000A00A10302002031DDD
:1000A00044281030A30023307E2208003022A00113
:1000B0002330A10020089923A200A10A210884006E
:1000C00022088000A00A08302002031D5A280830A8
:1000D000A30023307E2208003022E5221922A0014D
:1000E0002008512342221322A00A1F302002031DA0
:1000F0007028F822AE2808003022A0012008002332
:100100004022A00A08302002031D7E28AE280800E5
:10011000A00120081A23A100443E2C2221080D230F
:10012000422211302C221322A00A08302002031D83
:100130008928AE2808003022A00120083C23A10015
:100140002108023E2C2221082723422211302C2292
:100150000022A00A10302002031D9D2815302C22F9
:1001600008003022A0012008BB234222A00A14303C
:100170002002031DB32840302C22A0012008D423E4
:100180004222A00A14302002031DBE28AE280022FD
:10019000512210227C20162230221622882016227C
:1001A0009B20102256201022402010226C2032204A
:1001B000B12010221022102210223022FC22CA2844
:10040000032203220322831603132A30EE00FF3057
:10041000EF00EF0B092AEE0B072A831203130800E3
:10042000162216220800002200220800132213229E
:1004300008008830D6221D220800831603130430DA
:10044000EE00EF00EF0B222AEE0B212A0000000045
:1004500000008312031308008038D6221D220800F2
:100460000130D62234220800831203172130CE0037
:10047000CF00CF0B392ACE0B382A83120313080082
:100480000F39303883160313ED006D0E83120313FA
:10049000E922831603136D0883120313E9221D2238
:1004A0000800803083160313860583120313831616
:1004B00003132030ED003422ED0B5B2A831203136B
:1004C0003330D6223230D62234222830D62234227B
:1004D0000830D62234220130D62234220630D622E9
:1004E00034220F30D62234220800831203134830FE
:1004F000EF001030EE00831203130800831203177D
:10050000CB0084000008CC00CB0A4B08083ECD008D
:100510004D084B06031D922A4030831203132C22F0
:10052000831203174B08840000088312031342222E
:1005300083120317CB0ACC0B882A831203130800FB
:1005400083120317CB0083120313E52283120313D4
:100550006F08831203132C22831203174B08831294
:1005600003134222F822831203136E08831203132B
:100570002C22831203174B08831203134222C32237
:1005800083120313080083120313EE0AEF0A6E08A6
:10059000283C0319D02A6F08683C0319D32A0800A5
:1005A0000030EE0008004030EF000800831603130F
:1005B000ED006D0E83120313EC22831603136D08F6
:1005C00083120313EC221D2208000730D6221D22BD
:1005D00008000F394038ED2A0F39860010388600A0
:1005E000F722103A8600F7220F3086000800080034
:1005F0000430D6221D2208008030D6221D22080099
:10060000A20003308A002208820701340234033436
:1006100004340534063407340834A20003308A0059
:100620002208820745346C34653463347234613493
:1006300066347434A20003308A002208820707342B
:100640000034063401340534023404340334A20087
:1006500003308A0022088207573469346C346434CA
:10066000653472346E3465347334733420345234E8
:100670006134643469346F34A20003308A00220884
:1006800082070F3400340E3401340D3402340C343C
:1006900003340B3404340A34053409340634083482
:1006A0000734A20003308A00220882074F346134E5
:1006B0006B342034483469346C346C3473342034F3
:1006C000523465347334653461347234633468345D
:1006D00020342E342E342E34203420342034203450
:1006E00020342034203420342034A20003308A0007
:1006F0002208820753346D3461346C346C342034F6
:1007000057346F346E3464346534723420344C346E
:1007100061346234733420342E342E342E34203439
:100720002034203420342034203420342034203429
:100730002034A20003308A00220882075134523448
:10074000503420344C34613462347334A2000330AA
:100750008A00220882072A344D346F34723473348D
:1007600065342034453478347034723465347334ED
:1007700073342A342034A20003308A00220882070E
:10078000313434342E343034363430342E34303442
:1007900030343034203441344E3420343334353422
:1007A0002034573470346D34A20003308A0022089C
:1007B00082075234493454342B343034303430349A
:1007C000203466343534303430342034203420340E
:0A07D000203432342E34353457340F
:02400E00213F50
:00000001FF
