:020000040000FA
:040000008A15AE2A85
:10100000A40008308A002408820701340234033423
:1010100004340534063407340834A40008308A0048
:101020002408820745346C34653463347234613487
:1010300066347434A40008308A0024088207073418
:101040000034063401340534023404340334A4007B
:1010500008308A0024088207573469346C346434B9
:10106000653472346E3465347334733420345234DE
:101070006134643469346F34A40008308A00240871
:1010800082070F3400340E3401340D3402340C3432
:1010900003340B3404340A34053409340634083478
:1010A0000734A40008308A00240882074F346134D2
:1010B0006B342034483469346C346C3473342034E9
:1010C0005234653473346534613472346334683453
:1010D00020342E342E342E34203420342034203446
:1010E00020342034203420342034A40008308A00F6
:1010F0002408820753346D3461346C346C342034EA
:1011000057346F346E3464346534723420344C3464
:1011100061346234733420342E342E342E3420342F
:10112000203420342034203420342034203420341F
:101130002034A40008308A00240882075134523435
:10114000503420344C34613462347334A400083099
:101150008A00240882072A344D346F347234733481
:1011600065342034453478347034723465347334E3
:0611700073342A34203420
:101200000F39303883160313A000200E8312031306
:1012100021218316031320088312031321214A215D
:10122000080001303B212F210800831203134830AE
:10123000A1001030A000831203130800EA21EA2164
:1012400008000F39403825290F39860010388600EC
:101250007D21103A86007D210F3086000800831220
:1012600003172130A000A100A10B3429A00B3329C2
:1012700083120313080083160313A000200E8312A9
:10128000031324218316031320088312031324213C
:101290004A210800831603130430A400A500A50BFF
:1012A0004F29A40B4E2900000000000083120313F5
:1012B00008008030831603138605831203138316F8
:1012C00003132030A0002F21A00B632983120313E6
:1012D00033303B2132303B212F2128303B212F213D
:1012E00008303B212F2101303B212F2106303B21AB
:1012F0002F210F303B212F210800080007303B2110
:101300004A21080083160313A100831203137E21D0
:1013100083120313210883120313E6218316031398
:101320002108831203130221BC2183120313200816
:1013300083120313E6218316031321088312031378
:101340000221A52183120313080083120313A00AAC
:10135000A10A2008283C0319B2292108683C031976
:10136000B52908000030A00008004030A1000800A6
:1013700088303B214A21080004303B214A210800E3
:1013800083160313A10084000008A200A10A21080B
:10139000083EA30023082106031DD42940308312F0
:1013A0000313E62183160313210884000008831227
:1013B0000313022183160313A10AA20BCA29831265
:1013C0000313080080303B214A21080080383B216C
:1013D0004A210800ED21ED210800F021F02108004C
:1013E000F321F321F321831603132A30A400FF30E5
:1013F000A500A50BF929A40BF729831203130800F4
:101400008A1511218A151521A20122088A15752035
:101410008A1582218A15ED218A15A20A1F3022021F
:10142000031D052A08008A1511218A15A2012530FD
:10143000A30022088A15A6208A15A400A30A23085F
:10144000840024088000A20A10302202031D192AF9
:101450001030A50025308A15C02108008A151121F9
:101460008A15A2012530A30022088A1599208A1521
:10147000A400A30A2308840024088000A20A0830DC
:101480002202031D342A0830A50025308A15C02108
:1014900008008A1511218A157E218A15B821A2011A
:1014A00022088A1551208A1502218A15ED218A15F4
:1014B000A20A1F302202031D502A8A15BC210800EF
:1014C0008A151121A20122088A1500208A150021FF
:1014D0008A15A20A08302202031D632A0800A2010D
:1014E00022088A151A20A3008A15E62123088A15E6
:1014F0000D208A15022111308A15E6218A15ED2169
:101500008A15A20A08302202031D702A08008A15D3
:1015100011218A15A20122088A153C208A15A300F0
:10152000073C031C982A23088A15E6218A159D2A60
:101530002308383E8A15E6218A1523088A152720B4
:101540008A15022111308A15E6218A15ED218A15A6
:10155000A20A10302202031D8B2A08008A15F021EE
:101560008A1559218A151E218A1560228A151E2185
:101570008A1511218A151E218A156F228A151E21AE
:101580008A1587228A151E218A152E228A151E2168
:101590008A1513228A151E218A1549228A151E21B1
:1015A0008A1500228A151E218A1511218A15E22129
:0415B0008A15B42ABA
:02400E00213F50
:00000001FF
