:020000040000FA
:040000000000002AD2
:080008009D00030E9E008E0A0C
:1000100003198D0A940A0B111E0E83009D0E1D0EEE
:020020000900D5
:1000800000308A0016088207273410340334E8341D
:0C0090000034643400340A3400340134BD
:10020000192170230F30840005308C0000083E2334
:10021000840A8C0B062915088600940108008B12AD
:1002200083168112011281110115811401148312A8
:1002300008008F01900191019201930196010D0830
:100240009B000E089C000F30840040209700960A07
:1002500040209800960A1B0899001C089A0018086C
:100260009A02031837291908031941299903170815
:100270009902031C41291A089C0019089B00800A56
:100280002F2930308004840A1608083C03182529D9
:02029000080064
:100400000F211C230C3056230E238D018E010E303C
:1004100095008B168B170021140803190C2A0B2A40
:040420000034003470
:1006000003230323032383122A30A100FF30A20017
:10061000A20B082BA10B062B8312080001305623D6
:1006200012230800831221309F00A000A00B162B7C
:100630009F0B152B831208008030831686058312CA
:1006400083122030A3001223A30B232B83123330F9
:1006500056233230562312232830562312230830D3
:100660005623122301305623122306305623122319
:100670000F305623122308000F3930388312A3009D
:10068000230E8312612383122308831261234923DB
:10069000080083120430A100A200A20B4D2BA10B75
:1006A0004C2B000000000000831208008312A300FE
:1006B000230E8312642383122308831264234923A5
:1006C00008000F394038652B0F3986001038860036
:1006D0006F23103A86006F230F3086000800080051
:0806E000803056234923080075
:02400E00F13F80
:00000001FF
