:020000040000FA
:040000000000002AD2
:08000800F000030EF100831269
:100010000313A90A0319A80AAF0A0B11710E830072
:06002000F00E700E090055
:1000800000308A0020088207273410340334E83413
:0C0090000034643400340A3400340134BD
:10020000AA01AB01AC01AD01AE01A0012808A50017
:100210002908A6002A3084004020A100A00A40201E
:10022000A200A00A2508A3002608A4002208A40210
:1002300003181E29230803192829A3032108A30250
:10024000031C28292408A6002308A500800A1629D3
:1002500030308004840A2008083C03180C29080068
:10026000002182232A3084000530A700000846239D
:10027000840AA70B362930088600AF0108008B12CC
:1002800083160313811201128111011581140114C7
:06029000831203130800B5
:100400003F2120230C3064231023A801A9010E30C2
:10041000B0008B168B1730212F0803190C2A0B2ADA
:040420000034003470
:10060000032303230323831203132A30B300FF3091
:10061000B400B40B092BB30B072B83120313080090
:100620000130642314230800831203132130B10026
:10063000B200B20B192BB10B182B83120313080055
:10064000803083160313860583120313831203136A
:100650002030B5001423B50B2A2B8312031333303B
:100660006423323064231423283064231423083095
:1006700064231423013064231423063064231423D9
:100680000F306423142308000F393038831203130A
:10069000B500350E83120313732383120313350839
:1006A00083120313732355230800831203130430AA
:1006B000B300B400B40B5A2BB30B592B000000004D
:1006C000000083120313080083120313B500350ED4
:1006D0008312031376238312031335088312031343
:1006E0007623552308000F394038772B0F398600C1
:1006F000103886008123103A860081230F3086004F
:0C07000008000800803064235523080026
:02400E00213F50
:00000001FF
