:020000040000FA
:040000000000002AD2
:08000800F000030EF100831269
:100010000313A90A0319A80AAF0A0B11710E830072
:06002000F00E700E090055
:1000800000308A0020088207273410340334E83413
:0C0090000034643400340A3400340134BD
:100200000A308600B0000430831603139B001C14D0
:100210001A0883120313A800831603139B0A1C14E5
:100220001A0883120313A9000E30B00086000800DC
:1002300006308600B000831603139C181D29831610
:10024000031304309B00831203132808831603133F
:100250009A00831603138B131C1555309D00AA308A
:100260009D009C148B179C183329831603139B0A3B
:10027000831203132908831603139A0083160313AA
:100280008B1355309D00AA309D009C148B179C1831
:1002900047291C11831203130E30B000860008009A
:1002A000AA01AB01AC01AD01AE01A0012808A50077
:1002B0002908A6002A3084004020A100A00A40207E
:1002C000A200A00A2508A3002608A4002208A40270
:1002D00003186E29230803197829A3032108A30210
:1002E000031C78292408A6002308A500800A662993
:1002F00030308004840A2008083C03185C29080078
:10030000502182232A3084000530A70000084623AC
:10031000840AA70B862930088600AF0108008B12DB
:100320008316031381120112811101158114011426
:0603300083120313080014
:100400008F21202307309F000C3064231023A80184
:10041000A9010E30B0008B168B178021083005051E
:100420000319002110300505031918212F0803199D
:040430000E2A0D2A59
:04043400003400345C
:10060000032303230323831203132A30B300FF3091
:10061000B400B40B092BB30B072B83120313080090
:100620000130642314230800831203132130B10026
:10063000B200B20B192BB10B182B83120313080055
:10064000803083160313860583120313831203136A
:100650002030B5001423B50B2A2B8312031333303B
:100660006423323064231423283064231423083095
:1006700064231423013064231423063064231423D9
:100680000F306423142308000F393038831203130A
:10069000B500350E83120313732383120313350839
:1006A00083120313732355230800831203130430AA
:1006B000B300B400B40B5A2BB30B592B000000004D
:1006C000000083120313080083120313B500350ED4
:1006D0008312031376238312031335088312031343
:1006E0007623552308000F394038772B0F398600C1
:1006F000103886008123103A860081230F3086004F
:0C07000008000800803064235523080026
:02400E00213F50
:00000001FF
