:020000040000FA
:040000000000022AD0
:08000800F000030EF100831269
:100010000313A20A0319A10AA80A0B11710E830087
:06002000F00E700E090055
:1000800000308A002A088207273410340334E83409
:0C0090000034643400340A3400340134BD
:1002000006308600A900831603139C18052983165F
:10021000031304309B008312031321088316031376
:100220009A00831603138B131C1555309D00AA30BA
:100230009D009C148B179C181B29831603139B0A83
:10024000831203132208831603139A0083160313E1
:100250008B1355309D00AA309D009C148B179C1861
:100260002F291C11831203130E30A90086000800E9
:1002700047217223233084000530A0000008362374
:10028000840AA00B3E2929088600A8010800A301C2
:10029000A401A501A601A701AA012108AF00220817
:1002A000B000233084004020AB00AA0A4020AC00FC
:1002B000AA0A2F08AD003008AE002C08AE020318C1
:1002C00065292D0803196F29AD032B08AD02031C06
:1002D0006F292E08B0002D08AF00800A5D2930304C
:1002E0008004840A2A08083C0318532908008B124A
:1002F0008316031381120112811101158114011457
:100300008312031308000A308600A9008316031322
:1003100004309B001C141A0883120313A1008316D7
:1003200003139B0A1C141A0883120313A2000E3035
:06033000A9008600080090
:040400000034003490
:0C040400772110230C3054230023A101A9
:10041000A2010E30A9008B168B1738210830050574
:100420000319832110300505031900212808031939
:040430000E2A0D2A59
:100600000130542304230800831203132130B10066
:10061000B200B20B092BB10B082B83120313080095
:10062000803083160313860583120313831203138A
:100630002030B5000423B50B1A2B8312031333307B
:100640005423323054230423283054230423083005
:100650005423042301305423042306305423042359
:100660000F305423042308000F393038831203134A
:10067000B500350E83120313632383120313350869
:1006800083120313632345230800831203130430EA
:10069000B300B400B40B4A2BB30B492B000000008D
:1006A000000083120313080083120313B500350EF4
:1006B0008312031366238312031335088312031373
:1006C0006623452308000F394038672B0F39860011
:1006D000103886007123103A860071230F3086008F
:0C06E00008000800803054234523080067
:02400E00213F50
:00000001FF
