:020000040000FA
:040000000000022AD0
:08000800F000030EF100831269
:1000100003130B1D122883120313A30A0319A20A48
:10002000A90A0B11831203130D1E1A280D12831235
:100030000313A00A83120313710E8300F00E700ED7
:020040000900B5
:1000800000308A002B088207273410340334E83408
:0C0090000034643400340A3400340134BD
:1002000001308A00200C0339820712292429082989
:10021000831603130D1283120313A0010E30860000
:10022000AA00080006308600AA00831603178C185F
:1002300008000430831203178D0083120313220871
:10024000831203178C003229831603178C180800B9
:100250000530831203178D008312031323088312C2
:1002600003178C00831603178B130C1555308D0064
:10027000AA308D008C140D168B1783120313A00A5D
:10028000080050217223243084000530A1000008AA
:100290003623840AA10B47292A088600A9010800F1
:1002A000A401A501A601A701A801AB012208B00085
:1002B0002308B100243084004020AC00AB0A402069
:1002C000AD00AB0A3008AE003108AF002D08AF0218
:1002D00003186E292E0803197829AE032C08AE02E4
:1002E000031C78292F08B1002E08B000800A662967
:1002F00030308004840A2B08083C03185C2908006D
:100300008B128316031381120112811101158114BE
:1003100001148312031308000A308600AA00831216
:10032000031704308D00831603178C130C148312EB
:1003300003170C0883120313A200831203178D0AFC
:10034000831603170C14831203170C08831203136C
:0A035000A3000E30AA00860008008A
:040400000034003490
:0C040400802110230C3054230023A2019F
:10041000A3010E30AA00A0018B168B1741212018D2
:1004200000210830050503198C2110300505031D36
:100430001E2A2008031D1E2A0130A00029080319C6
:040440000F2A0E2A47
:100600000130542304230800831203132130B20065
:10061000B300B30B092BB20B082B83120313080092
:10062000803083160313860583120313831203138A
:100630002030B6000423B60B1A2B83120313333079
:100640005423323054230423283054230423083005
:100650005423042301305423042306305423042359
:100660000F305423042308000F393038831203134A
:10067000B600360E83120313632383120313360866
:1006800083120313632345230800831203130430EA
:10069000B400B500B50B4A2BB40B492B0000000089
:1006A000000083120313080083120313B600360EF2
:1006B0008312031366238312031336088312031372
:1006C0006623452308000F394038672B0F39860011
:1006D000103886007123103A860071230F3086008F
:0C06E00008000800803054234523080067
:02400E00212F60
:02401000FC3F73
:00000001FF
