:020000040000FA
:040000008A11B02A87
:10008000A20000308A0022088207013402340334BF
:1000900004340534063407340834A20000308A00E2
:1000A0002208820745346C34653463347234613419
:1000B00066347434A20000308A00220882070734B4
:1000C0000034063401340534023404340334A2000D
:1000D00000308A0022088207573469346C34643453
:1000E000653472346E34653473347334203452346E
:1000F0006134643469346F34A20000308A0022080D
:1001000082070F3400340E3401340D3402340C34C1
:1001100003340B3404340A34053409340634083407
:100120000734A20000308A00220882074F3461346D
:100130006B342034483469346C346C347334203478
:1001400052346534733465346134723463346834E2
:1001500020342E342E342E342034203420342034D5
:1001600020342034203420342034A20000308A008F
:100170002208820753346D3461346C346C3420347B
:1001800057346F346E3464346534723420344C34F4
:1001900061346234733420342E342E342E342034BF
:1001A00020342034203420342034203420342034AF
:1001B0002034A20000308A002208820751345234D1
:1001C000503420344C34613462347334A200003033
:1001D0008A00220882072A344D346F347234733413
:1001E0006534203445347834703472346534733473
:0601F00073342A342034B0
:040400000034003490
:0C0404008A1130238A117523A001200802
:100410008A11B5208A11A0238A1113238A11A00AF8
:100420001F302002031D072A08008A1130238A1179
:10043000A0012330A10020088A11E6208A11A20021
:10044000A10A2108840022088000A00A103020029E
:10045000031D1B2A1030A30023308A117E230800BD
:100460008A1130238A11A0012330A10020088A11AB
:10047000D9208A11A200A10A210884002208800044
:10048000A00A08302002031D362A0830A3002330BA
:100490008A117E2308008A1130238A11E5238A11EC
:1004A0001923A00120088A1191208A1142238A1160
:1004B00013238A11A00A1F302002031D522A8A1119
:1004C000F82308008A113023A00120088A11402057
:1004D0008A1140238A11A00A08302002031D652AD0
:1004E0000800A00120088A115A20A1008A112C239B
:1004F00021088A114D208A11422311308A112C23A0
:100500008A1113238A11A00A08302002031D722ABF
:1005100008008A1130238A11A00120088A117C204A
:100520008A11A100073C031C9A2A21088A112C2356
:100530008A119F2A2108383E8A112C238A1121080A
:100540008A1167208A11422311308A112C238A11C3
:1005500013238A11A00A10302002031D8D2A0800DF
:100560008A1100238A1151238A1110238A116222D1
:100570008A1110238A1130238A1110238A117122C3
:100580008A1110238A1189228A1110238A1130229C
:100590008A1110238A1115228A1110238A114B22E5
:1005A0008A1110238A1102228A1110238A11302302
:0805B0008A11FC238A11B62A0E
:10060000032303230323831203132A30C100FF3083
:10061000C200C20B092BC10B072B83120313080066
:100620001623162308000023002308001323132396
:1006300008008830D6231D230800831203130430DA
:10064000C100C200C20B222BC10B212B00000000F5
:1006500000008312031308008038D6231D230800EE
:100660000130D62334230800831203132130BF0046
:10067000C000C00B392BBF0B382B831203130800AB
:100680000F39303883120313C300430E8312031350
:10069000E92383120313430883120313E9231D2361
:1006A0000800803083160313860583120313831218
:1006B00003132030C3003423C30B5B2B83120313BB
:1006C0003330D6233230D62334232830D623342374
:1006D0000830D62334230130D62334230630D623E2
:1006E00034230F30D62334230800831203134830F9
:1006F000BE001030BD0083120313080083120313E1
:10070000BA0084000008BB00BA0A3A08083EBC00E0
:100710003C083A06031D922B4030831203132C230E
:10072000831203133A088400000883120313422340
:1007300083120313BA0ABB0B882B8312031308001E
:1007400083120313BA0083120313E52383120313E6
:100750003E08831203132C23831203133A088312D7
:1007600003134223F823831203133D088312031358
:100770002C23831203133A08831203134223C32347
:1007800083120313080083120313BD0ABE0A3D0837
:10079000283C0319D02B3E08683C0319D32B0800D2
:1007A0000030BD0008004030BE0008008312031373
:1007B000C300430E83120313EC2383120313430875
:1007C00083120313EC231D2308000730D6231D23B7
:1007D00008000F394038ED2B0F398600103886009D
:1007E000F723103A8600F7230F3086000800080030
:1007F0000430D6231D2308008030D6231D23080093
:02400E00213F50
:00000001FF
